:1000000002C1000030C100002EC100002CC1000060
:100010002AC1000028C1000026C1000024C1000040
:1000200022C1000020C100001EC100001CC1000050
:100030001AC1000018C1000016C1000014C1000060
:1000400012C1000010C100000EC100000CC1000070
:100050000AC1000008C1000006C100000AC6000075
:1000600002C10000D0C50000A5C50000FCC0000012
:10007000FAC00000F8C00000F6C00000F4C00000A4
:10008000F2C00000F0C00000EEC00000ECC00000B4
:10009000EAC00000E8C00000E6C00000E4C00000C4
:1000A000E2C00000E0C00000DEC00000DCC00000D4
:1000B000DAC00000D8C00000D6C00000D4C00000E4
:1000C000D2C00000D0C00000CEC00000CCC00000F4
:1000D000CAC00000C8C00000C6C00000C4C0000004
:1000E000C2C0000000002100240027002A002D00CB
:1000F0003000330001010000040107010A01000083
:100100002200250028002B002E00310034000201BF
:100110000000050108010B0100002000230026005B
:1001200029002C002F00320000010000030106010D
:10013000090105050505070508080808020202026D
:100140000A0A080804040404010101010101010173
:100150000303030303030303040707070C0C0C0C3E
:100160000C0C0C0C02020202060606060606060627
:100170000B0B0B0B0B0B0B0B0102102020080810B4
:100180002040102040800201020108040201010207
:1001900004081020408080402010080402018004E0
:1001A000020180402010080402010804020101023B
:1001B0000408102040800102040810204080000044
:1001C0000A0B02090C0D0E080703040100000000D1
:1001D000000000000000000000000000000000001F
:1001E00000000000000000000000121110000000DC
:1001F00000000000000000000000000000000000FF
:1002000000000000830611241FBECFEFD1E2DEBF45
:10021000CDBF00E00CBF13E0A0E0B2E0EEEBF4E1F4
:1002200000E00BBF02C007900D92AE39B107D9F7BD
:1002300024E0AEE9B3E001C01D92A038B207E1F7B7
:1002400011E0C3E0D1E000E006C021970109802F52
:10025000FE010E94550AC230D10780E00807A9F7C5
:10026000D5D50C945D0ACCCEAF92BF92CF92DF92DF
:10027000EF92FF920F931F93CF93DF936C017B015B
:100280008B01040F151FEB015E01AE18BF08C017EC
:10029000D10759F06991D601ED91FC910190F0815F
:1002A000E02DC6011995892B79F7C501DF91CF9112
:1002B0001F910F91FF90EF90DF90CF90BF90AF9084
:1002C0000895FC01538D448D252F30E0842F90E05C
:1002D000821B930B541710F0CF9608950197089541
:1002E000FC01918D828D981761F0A28DAE0FBF2F0A
:1002F000B11D5D968C91928D9F5F9F73928F90E060
:1003000008958FEF9FEF0895FC01918D828D9817CE
:1003100031F0828DE80FF11D858D90E008958FEF0B
:100320009FEF0895FC01918D228D892F90E0805CD4
:100330009F4F821B91098F739927089587EB93E054
:10034000F1DF21E0892B09F420E0822F0895FC01E0
:10035000A48DA80FB92FB11DA35ABF4F2C91848D26
:1003600090E001968F739927848FA689B7892C9383
:10037000A089B1898C91837080648C93938D848DD6
:10038000981306C00288F389E02D80818F7D8083D9
:100390000895EF92FF920F931F93CF93DF93EC0199
:1003A00081E0888F9B8D8C8D98131AC0E889F9891C
:1003B000808185FF15C09FB7F894EE89FF8960831F
:1003C000E889F98980818370806480839FBF81E0A0
:1003D00090E0DF91CF911F910F91FF90EF900895E2
:1003E000F62E0B8D10E00F5F1F4F0F731127E02EBD
:1003F0008C8D8E110BC00FB607FCFACFE889F989F6
:10040000808185FFF5CFCE01A2DFF2CFEB8DEC0F1F
:10041000FD2FF11DE35AFF4FF0829FB7F8940B8F29
:10042000EA89FB8980818062D0CFCF93DF93EC0192
:10043000888D8823B1F0AA89BB89E889F9898C91D4
:1004400085FD03C0808186FD0CC00FB607FCF7CF89
:100450008C9185FFF2CF808185FFEDCFCE0177DFD4
:10046000EACFDF91CF91089580E090E0892B21F0D1
:1004700065DF81110E94000080E090E0892B49F047
:1004800080E090E0892B29F00E94000081110E94F9
:10049000000080E090E0892B49F080E090E0892B1B
:1004A00029F00E94000081110E94000080E090E08D
:1004B000892B49F080E090E0892B29F00E94000010
:1004C00081110C94000008958150823108F059C0C8
:1004D000E82FF0E08827E159FD4F8F4FE6C78F02E4
:1004E0009302810287028B02C10296029C02A00243
:1004F000A602AA02AE02B402B802C102BC02C20243
:10050000C602809180008F7780938000089580914B
:1005100080008F7DF9CF80918000877FF5CF84B5F3
:100520008F7784BD089584B58F7DFBCF8091B00017
:100530008F778093B00008958091B0008F7DF9CFC0
:10054000809190008F778093900008958091900023
:100550008F7DF9CF80919000877FF5CF8091A000AB
:100560008F778093A00008958091A0008F7DF9CFB0
:100570008091A000877FF5CF809120018F778093B5
:1005800020010895809120018F7DF9CF8091200175
:10059000877FF5CFCF93DF93282F30E0F901E25426
:1005A000FE4F8491F901E858FE4FD491F901EE5CB9
:1005B000FE4FC491CC2399F0811186DFEC2FF0E03F
:1005C000EE0FFF1FE85EFE4FA591B491EC91ED2375
:1005D00081E090E009F480E0DF91CF91089580E020
:1005E00090E0FACF1F93CF93DF93282F30E0F901EB
:1005F000E254FE4F8491F901E858FE4FD491F9017D
:10060000EE5CFE4FC491CC23A1F0162F81115CDF6C
:10061000EC2FF0E0EE0FFF1FE250FF4FA591B491D9
:100620008FB7F894EC91111108C0D095DE23DC93BC
:100630008FBFDF91CF911F910895DE2BF8CFCF931D
:10064000DF9390E0FC01E858FE4F24918E5C9E4FB2
:10065000FC0184918823D1F090E0880F991FFC0160
:10066000EC51FF4FA591B491FC01E250FF4FC591B1
:10067000D49161110EC09FB7F8948C91E22FE09550
:100680008E238C932881E223E8839FBFDF91CF9153
:1006900008958FB7F894EC91E22BEC938FBFF6CFCF
:1006A0003FB7F8948091A3039091A403A091A50370
:1006B000B091A60326B5A89B05C02F3F19F001965F
:1006C000A11DB11D3FBFBA2FA92F982F8827BC01AC
:1006D000CD01620F711D811D911D42E0660F771FD4
:1006E000881F991F4A95D1F708958F929F92AF92D4
:1006F000BF92CF92DF92EF92FF926B017C01D0DF2D
:100700004B015C01C114D104E104F104B1F0C8DF74
:10071000681979098A099B09683E7340810591052A
:1007200088F321E0C21AD108E108F10888EE880EAA
:1007300083E0981EA11CB11CE5CFFF90EF90DF90E5
:10074000CF90BF90AF909F908F9008950F931F937D
:10075000CF93DF93EC018A81882319F061E08881CF
:100760006EDF60E088813EDF83E090E00197F1F783
:1007700061E0888137DF83E290E00197F1F760E084
:10078000888130DF8A81882319F060E0888157DF13
:1007900087DF6B837C838D839E838981FBDE892B3E
:1007A00091F47EDF0B811C812D813E81601B710BDA
:1007B000820B930B0F81188529853A850617170739
:1007C0002807390750F76CDF6B837C838D839E830A
:1007D0008981E0DE892B91F063DF0B811C812D8103
:1007E0003E81601B710B820B930B0F81188529854D
:1007F0003A85061717072807390750F751DF2B816D
:100800003C81CB01821B930BDF91CF911F910F9104
:1008100008958EE0BFDE9093B6038093B5038FE01A
:10082000B9DE9093B4038093B30380E1B3DE909379
:10083000B2038093B10381E1ADDE9093B003809366
:10084000AF030895FC0101900020E9F73197AF0153
:10085000481B590BBC0187EB93E006CD8F929F920A
:10086000AF92BF920F931F93CF93DF93CDB7DEB7B5
:10087000A1970FB6F894DEBF0FBECDBF19A24230CC
:1008800008F44AE08E010F5D1F4F842E912CB12C8D
:10089000A12CA5019401E7D5E62FB901CA01EA30E0
:1008A000ECF4E05DD801EE938D01232B242B252B56
:1008B00081F790E080E0109711F0CD01C3DFA196A1
:1008C0000FB6F894DEBF0FBECDBFDF91CF911F9161
:1008D0000F91BF90AF909F908F900895E95CE2CF09
:1008E000CF92DF92EF92FF92CF93DF936B017C0167
:1008F0006DE287EB93E04DDDEC0166277727CB01B6
:100900006C197D098E099F094AE0A8DF8C0F9D1F95
:10091000DF91CF91FF90EF90DF90CF900895CF932C
:10092000DF9390DFEC018CE292E08CDF8C0F9D1F57
:10093000DF91CF9108958091AF039091B003892BFF
:1009400071F18FE292E0EBDF81E124DE9093B0035E
:100950008093AF0360E08BE145DE60E089E142DE39
:1009600061E087E13FDE60E082E33CDE60E080E35F
:1009700039DE61E08EE236DE60E08DE033DE60E09D
:100980008CE030DE61E08BE02DDE61E088E02ADE85
:1009900060E089E027DE60E08AE024DECCCF83E4FB
:1009A00092E0BDCF8091B1039091B203892B71F198
:1009B0008FE592E0B4DF80E1EDDD9093B2038093A8
:1009C000B10360E08BE10EDE60E089E10BDE61E007
:1009D00087E108DE60E082E305DE60E080E302DEBE
:1009E00061E08EE2FFDD61E08DE0FCDD60E08CE047
:1009F000F9DD60E08BE0F6DD60E088E0F3DD60E0EB
:100A000089E0F0DD61E08AE0EDDDCCCF83E792E0C4
:100A100086CF8091B3039091B403892B71F18FE855
:100A200092E07DDF8FE0B6DD9093B4038093B30353
:100A300060E08BE1D7DD60E089E1D4DD61E087E152
:100A4000D1DD61E082E3CEDD60E080E3CBDD60E01C
:100A50008EE2C8DD60E08DE0C5DD60E08CE0C2DDE7
:100A600061E08BE0BFDD60E088E0BCDD60E089E054
:100A7000B9DD61E08AE0B6DDCCCF83EA92E04FCF0A
:100A80008091B5039091B603892B71F18FEB92E0C1
:100A900046DF8EE07FDD9093B6038093B50361E07F
:100AA0008BE1A0DD60E089E19DDD60E087E19ADD1A
:100AB00060E082E397DD60E080E394DD61E08EE258
:100AC00091DD60E08DE08EDD60E08CE08BDD61E04B
:100AD0008BE088DD60E088E085DD60E089E082DD34
:100AE00061E08AE07FDDCCCF83ED92E018CFBC01DE
:100AF000990F880B990B97FDF3CE4AE0AFCECF93B9
:100B0000DF9385E794E022DEC8E3D0E0BE0197D40E
:100B10007093A8036093A7038AE694E017DEBE01F2
:100B20008ED47093AA036093A9038FE594E00EDE40
:100B3000BE0185D47093AC036093AB0384E594E06D
:100B400005DEBE017CD47093AE036093AD038FEEDF
:100B500092E078DE8091A7039091A803C8DF84EF2C
:100B600092E070DE8091A9039091AA03C0DF8BEF21
:100B700092E068DE8091AB039091AC03B8DF82E035
:100B800093E060DE6091AD037091AE03072E000C20
:100B9000880B990B97FF0BC0A3DE8CE292E052DE2C
:100BA00064E670E080E090E0DF91CF919ECD4AE076
:100BB00055DEF3CF1F920F920FB60F9211240BB692
:100BC0000F922F933F934F935F936F937F938F93E6
:100BD0009F93AF93BF93EF93FF9387EB93E0B7DBC4
:100BE000FF91EF91BF91AF919F918F917F916F9105
:100BF0005F914F913F912F910F900BBE0F900FBEC1
:100C00000F901F9018951F920F920FB60F921124FC
:100C10000BB60F922F938F939F93EF93FF93E091D7
:100C2000C703F091C8038081E091CD03F091CE031A
:100C300082FD1DC090818091D0038F5F8F732091C2
:100C4000D103821741F0E091D003F0E0E954FC4F6A
:100C5000958F8093D003FF91EF919F918F912F916A
:100C60000F900BBE0F900FBE0F901F9018958081B4
:100C7000F2CF1F920F920FB60F9211242F933F9332
:100C80008F939F93AF93BF9380919F039091A00305
:100C9000A091A103B091A20330919E0323E0230F02
:100CA0002D3758F50196A11DB11D20939E03809309
:100CB0009F039093A003A093A103B093A2038091FC
:100CC000A3039091A403A091A503B091A60301965C
:100CD000A11DB11D8093A3039093A403A093A5032A
:100CE000B093A603BF91AF919F918F913F912F91A8
:100CF0000F900FBE0F901F90189526E8230F0296B5
:100D0000A11DB11DD2CFCF92DF92EF92FF92CF9370
:100D1000DF93E7EBF3E01382128288EE93E0A0E02A
:100D2000B0E084839583A683B7838EE192E09183BC
:100D3000808385EC90E09587848784EC90E09787AA
:100D4000868780EC90E0918B808B81EC90E0938B98
:100D5000828B82EC90E0958B848B86EC90E0978B75
:100D6000868B118E128E138E148EC5E7D4E08FE120
:100D700088838DE189831A8261E08FE160DC60E025
:100D800089815DDC80E2C82E8EE4D82EE12CF12C26
:100D9000CF82D886E986FA86CAE6D4E08CE28883D8
:100DA0008AE289831A8261E08CE249DC60E0898111
:100DB00046DCCF82D886E986FA86CFE5D4E087E0A4
:100DC000888386E089831A8261E087E038DC60E00E
:100DD000898135DCCF82D886E986FA86C4E5D4E0FD
:100DE00085E0888384E089831A8261E085E027DCDE
:100DF00060E0898124DCCF82D886E986FA86DF919B
:100E0000CF91FF90EF90DF90CF900895789484B5C4
:100E1000826084BD84B5816084BD85B5826085BDF6
:100E200085B5816085BD80916E00816080936E0084
:100E30001092810080918100826080938100809176
:100E40008100816080938100809180008160809327
:100E500080008091B10084608093B1008091B000E7
:100E600081608093B00080919100826080939100B6
:100E700080919100816080939100809190008160C9
:100E8000809390008091A10082608093A100809166
:100E9000A10081608093A1008091A0008160809377
:100EA000A000809121018260809321018091210125
:100EB00081608093210180912001816080932001D5
:100EC00080917A00846080937A0080917A008260B9
:100ED00080937A0080917A00816080937A0080917B
:100EE0007A00806880937A001092C100E091C70375
:100EF000F091C80382E08083E091C303F091C403C2
:100F00001082E091C503F091C6038FEC80831092AC
:100F1000CF03E091CB03F091CC0386E08083E09196
:100F2000C903F091CA03808180618083E091C90385
:100F3000F091CA03808188608083E091C903F091B9
:100F4000CA03808180688083E091C903F091CA035D
:100F500080818F7D808389E093E0E1DCC4E1D2E091
:100F60008EE0C82E82E0D82E98E0E92E92E0F92E8D
:100F700002E012E02AE1A22E22E0B22E888122961F
:100F800061E05DDBF6018081F2E0CF0ED11C61E013
:100F900056DBF7018081F2E0EF0EF11C61E04FDBE0
:100FA000F80180810E5F1F4F61E049DBAC16BD0682
:100FB00029F760E08EE043DB60E08FE040DB60E03B
:100FC00080E13DDB60E081E13ADBCCEBD2E008EB95
:100FD0001BE095DD1EDC8091B5039091B603892B53
:100FE00009F04EDD8091B3039091B403892B09F091
:100FF00010DD8091B1039091B203892B09F0D2DC0E
:101000008091AF039091B003892B09F094DC80911B
:10101000A7039091A803883C91050CF480C08AE254
:1010200093E07DDC6CDDF5DB8091B5039091B60338
:10103000892B09F025DD8091B3039091B403892BAE
:1010400009F0E7DC8091B1039091B203892B09F09C
:10105000A9DC8091AF039091B003892B09F06BDC80
:101060008091A9039091AA03883C91050CF4BBC020
:1010700087E493E054DC43DDCCDB8091B5039091B1
:10108000B603892B09F0FCDC8091B3039091B40383
:10109000892B09F0BEDC8091B1039091B203892BBA
:1010A00009F080DC8091AF039091B003892B09F0A7
:1010B00042DC8091AB039091AC03883C91050CF429
:1010C000F6C084E693E02BDC1ADDA3DB8091B50348
:1010D0009091B603892B09F0D3DC8091B3039091F2
:1010E000B403892B09F095DC8091B1039091B20390
:1010F000892B09F057DC8091AF039091B003892BC5
:1011000009F019DC8091AD039091AE03883C910504
:101110000CF431C181E893E002DCA6D95ACFC29722
:101120003CF488E393E0FBDB1093010200930002A0
:1011300061E08BE157DA60E089E154DA60E087E151
:1011400051DA60E082E34EDA60E080E34BDA61E09E
:101150008EE248DA60E08DE045DA60E08CE042DA69
:1011600061E08BE03FDA60E088E03CDA60E089E053
:1011700039DA61E08AE036DA6091000270910102AA
:10118000072E000C880B990BB0DAD0930102C093A4
:10119000000260E08BE126DA61E089E123DA60E0B9
:1011A00087E120DA60E082E31DDA61E080E31ADAA9
:1011B00060E08EE217DA60E08DE014DA60E08CE047
:1011C00011DA61E08BE00EDA60E088E00BDA60E0D3
:1011D00089E008DA61E08AE005DA6CE271E080E03B
:1011E00090E083DA1FCFC2973CF485E593E097DB6C
:1011F000109301020093000260E08BE1F3D960E0FC
:1012000089E1F0D961E087E1EDD961E082E3EAD9D3
:1012100060E080E3E7D960E08EE2E4D960E08DE051
:10122000E1D960E08CE0DED961E08BE0DBD960E001
:1012300088E0D8D960E089E0D5D961E08AE0D2D9E8
:101240006091000270910102072E000C880B990B2F
:101250004CDAD0930102C093000260E08BE1C2D966
:1012600060E089E1BFD961E087E1BCD960E082E359
:10127000B9D961E080E3B6D960E08EE2B3D960E02D
:101280008DE0B0D961E08CE0ADD960E08BE0AAD907
:1012900060E088E0A7D960E089E0A4D961E08AE055
:1012A000A1D96CE271E080E090E01FDAE4CEC29751
:1012B0003CF482E793E033DB1093010200930002D9
:1012C00060E08BE18FD960E089E18CD961E087E152
:1012D00089D960E082E386D960E080E383D961E068
:1012E0008EE280D961E08DE07DD960E08CE07AD932
:1012F00060E08BE077D960E088E074D960E089E055
:1013000071D961E08AE06ED96091000270910102AA
:10131000072E000C880B990BE8D9D0930102C093DB
:10132000000260E08BE15ED960E089E15BD961E0B9
:1013300087E158D960E082E355D960E080E352D973
:1013400061E08EE24FD960E08DE04CD961E08CE045
:1013500049D960E08BE046D960E088E043D961E09C
:1013600089E040D960E08AE03DD96CE271E080E03C
:1013700090E0BBD9A9CEC2973CF48FE893E0CFDAD6
:10138000109301020093000260E08BE12BD960E032
:1013900089E128D961E087E125D960E082E322D99B
:1013A00060E080E31FD961E08EE21CD960E08DE04F
:1013B00019D960E08CE016D961E08BE013D961E0C7
:1013C00088E010D960E089E00DD960E08AE00AD9B0
:1013D0006091000270910102072E000C880B990B9E
:1013E00084D9D0930102C093000260E08BE1FAD867
:1013F00061E089E1F7D860E087E1F4D860E082E35A
:10140000F1D860E080E3EED861E08EE2EBD860E0F6
:101410008DE0E8D860E08CE0E5D861E08BE0E2D8D0
:1014200060E088E0DFD861E089E0DCD860E08AE055
:10143000D9D86CE271E080E090E057D96ECEAA1B5B
:10144000BB1B51E107C0AA1FBB1FA617B70710F0AF
:10145000A61BB70B881F991F5A95A9F780959095E1
:10146000BC01CD010895A1E21A2EAA1BBB1BFD01F0
:101470000DC0AA1FBB1FEE1FFF1FA217B307E40773
:10148000F50720F0A21BB30BE40BF50B661F771FCB
:10149000881F991F1A9469F76095709580959095AB
:1014A0009B01AC01BD01CF010895EE0FFF1F881F06
:0E14B0008BBF0790F691E02D1994F894FFCFB2
:1014BE00BC020A00090008000B000C000D002E00F3
:1014CE0030003200170019001B0000000000C90197
:1014DE003401610115029201700184010D0A00416F
:1014EE006D62756C616E636520696E2070617468E3
:1014FE00203400416D62756C616E636520696E20EB
:10150E0070617468203420436C65617265640041BB
:10151E006D62756C616E636520696E2070617468B2
:10152E00203300416D62756C616E636520696E20BB
:10153E0070617468203320436C656172656400418C
:10154E006D62756C616E636520696E207061746882
:10155E00203200416D62756C616E636520696E208C
:10156E0070617468203220436C656172656400415D
:10157E006D62756C616E636520696E207061746852
:10158E00203100416D62756C616E636520696E205D
:10159E0070617468203120436C656172656400531C
:1015AE00313A2000202053323A2000202053333A83
:1015BE002000202053343A20004155544F4D4154C1
:1015CE004943205452414646494320434F4E5452BC
:1015DE004F4C2053595354454D004E6F205645489D
:1015EE0049434C45532D3100486967682044656E68
:1015FE00736974792D31004E6F2056454849434C1E
:10160E0045532D3200486967682044656E736974CE
:10161E00792D32004E6F2056454849434C45532D87
:10162E003300486967682044656E736974792D3399
:10163E00004E6F2056454849434C45532D340048C3
:0E164E006967682044656E736974792D3400F5
:00000001FF
